S00E00005350495030322E7372656378
S11300000C9434000C9451000C9451000C94510045
S11300100C9451000C9451000C9451000C94510018
S11300200C9451000C9451000C9451000C94510008
S11300300C9451000C9451000C9451000C945100F8
S11300400C9451000C946A000C9451000C945100CF
S11300500C9451000C9451000C9451000C945100D8
S11300600C9451000C94510011241FBECFEFD8E022
S1130070DEBFCDBF11E0A0E0B1E0E2E1F4E002C0F8
S113008005900D92A030B107D9F721E0A0E0B1E0CE
S113009001C01D92A030B207E1F70E948B000C94BE
S11300A007020C940000F894E1E6F0E080E8808315
S11300B084E080838FEF8AB984B917B820E841E0DF
S11300C060E081E00E949C001EBC8CB580688CBD01
S11300D0789408951F920F920FB60F9211242F93C4
S11300E08F939F938EB59BB11BB895B19F7095B9B3
S11300F09BB19370282F2C7F922B9BB995B19C7F39
S11301008370892B85B99F918F912F910F900FBE8A
S11301100F901F9018950E9453006894CC24C3F844
S1130120EE24E39401E021E041E060E875E280E040
S113013090E00E941C01FFCF9CB59F7B9CBD811168
S11301400DC084B1846084B984B1886284B984B1F7
S11301508F7E84B98CB580618CBD11C0813079F4F7
S113016084B18B7F84B985B1846085B984B1877D7E
S113017084B984B1806184B98CB58F7E8CBD411102
S113018004C08CB580628CBD05C0413019F48CB5B7
S11301908F7D8CBD611104C08CB5837F8CBD17C06D
S11301A0613039F48CB5877F8CBD8CB584608CBD8F
S11301B00EC0623039F48CB588608CBD8CB58B7FF1
S11301C08CBD05C0633019F48CB58C608CBD8CB5C6
S11301D08C7F8CBD8DB58E7F8DBD223021F48DB585
S11301E081608DBD25C0243019F1283039F48CB5D7
S11301F081608CBD8DB581608DBD1AC0203121F424
S11302008CB581608CBD14C0203239F48CB5826009
S11302108CBD8DB581608DBD0BC0203421F48CB5AF
S113022082608CBD05C0203819F48CB583608CBD08
S11302308CB580648CBD0895CF92EF920F931F9379
S1130240CF93DF93D42F122FCC2DE0ECF0E020815C
S11302502D7F20831092C1001092C2004130E1F43E
S1130260DC01CB01880F991FAA1FBB1F880F991FA0
S1130270AA1FBB1F9C01AD01220F331F441F551F32
S113028060E472E48FE090E00E94E501DA01C901C4
S11302900197A109B10925C0411120C0DC01CB019E
S11302A0880F991FAA1FBB1F880F991FAA1FBB1F66
S11302B09C01AD01220F331F441F551F220F331F12
S11302C0441F551F60E472E48FE090E00E94E50152
S11302D0DA01C9010197A109B10903C080E090E0E6
S11302E0DC018093C400892F9A2FAB2FBB27809306
S11302F0C500D13029F4E0ECF0E080818260808395
S1130300113029F4E1ECF0E08081886080830130D1
S113031029F4E1ECF0E080818061808381E0E812DF
S113032006C0E2ECF0E08081877F80830EC082E02B
S1130330E81206C0E2ECF0E080818860808305C0AA
S1130340E2ECF0E08081877F8083E1ECF0E0808163
S11303508B7F8083E2ECF0E08081897F8083C530ED
S113036041F1C63021F480818260808322C0C7308D
S113037031F4E2ECF0E08081846080831AC0C830FC
S113038031F4E2ECF0E080818660808312C0C930F1
S113039059F4E1ECF0E0808184608083E2ECF0E0E9
S11303A080818660808305C0E2ECF0E08081866015
S11303B08083E1ECF0E0808180688083DF91CF91DD
S11303C01F910F91EF90CF900895A1E21A2EAA1BCE
S11303D0BB1BFD010DC0AA1FBB1FEE1FFF1FA217F1
S11303E0B307E407F50720F0A21BB30BE40BF50BEE
S11303F0661F771F881F991F1A9469F76095709577
S1130400809590959B01AC01BD01CF010895F894AE
S1050410FFCF18
S9030000FC
