:100000000C9434000C9451000C9451000C94510049
:100010000C9451000C9451000C9451000C9451001C
:100020000C9451000C9451000C9451000C9451000C
:100030000C9451000C9451000C9451000C945100FC
:100040000C9451000C9451000C9451000C945100EC
:100050000C9451000C9451000C9451000C945100DC
:100060000C9451000C94510011241FBECFEFD8E026
:10007000DEBFCDBF11E0A0E0B1E0EEE8F5E002C0E8
:1000800005900D92A634B107D9F721E0A6E4B1E0BE
:1000900001C01D92AA34B207E1F70E947A000C94C5
:1000A000C5020C940000CF92EF920F93F894E1E612
:1000B000F0E080E8808384E080838FEF8AB920E8D5
:1000C00041E060E080E00E94C7008BB11BB86894FB
:1000D000CC24C3F8EE24E39401E021E041E060E8A1
:1000E00075E280E090E00E94490178940F91EF90D2
:1000F000CF9008950E94530085B18B7F85B983E529
:100100000E9444018EB58093480180E00E94440122
:100110008EB58093470184E40E9444018EB580939C
:10012000480180E00E9444018EB58093460185B16C
:10013000846085B983E091E00E94120283E291E03D
:100140000E94120286E291E00E9412028091470111
:100150000E941F020E947B0283E291E00E94120231
:1001600083E291E00E94120282E391E00E94120277
:10017000809146010E941F020E947B0283E291E06F
:100180000E94120283E091E00E941202B5CF9CB55A
:100190009F7B9CBD81110DC084B1846084B984B102
:1001A000886284B984B18F7E84B98CB580618CBD3E
:1001B0000EC0813061F484B18B7F84B984B1877DB6
:1001C00084B984B1806184B98CB58F7E8CBD4111B6
:1001D00004C08CB580628CBD05C0413019F48CB56B
:1001E0008F7D8CBD611104C08CB5837F8CBD17C021
:1001F000613039F48CB5877F8CBD8CB584608CBD43
:100200000EC0623039F48CB588608CBD8CB58B7FA4
:100210008CBD05C0633019F48CB58C608CBD8CB579
:100220008C7F8CBD8DB58E7F8DBD223021F48DB538
:1002300081608DBD25C0243019F1283039F48CB58A
:1002400081608CBD8DB581608DBD1AC0203121F4D7
:100250008CB581608CBD14C0203239F48CB58260BD
:100260008CBD8DB581608DBD0BC0203421F48CB563
:1002700082608CBD05C0203819F48CB583608CBDBC
:100280008CB580648CBD08958EBD0DB407FEFDCF86
:100290000895CF92EF920F931F93CF93DF93D42FB4
:1002A000122FCC2DE0ECF0E020812D7F20831092E6
:1002B000C1001092C2004130E1F4DC01CB01880F93
:1002C000991FAA1FBB1F880F991FAA1FBB1F9C0144
:1002D000AD01220F331F441F551F60E472E48FE00D
:1002E00090E00E94A302DA01C9010197A109B109B6
:1002F00025C0411120C0DC01CB01880F991FAA1F26
:10030000BB1F880F991FAA1FBB1F9C01AD01220FA5
:10031000331F441F551F220F331F441F551F60E416
:1003200072E48FE090E00E94A302DA01C901019714
:10033000A109B10903C080E090E0DC018093C40012
:10034000892F9A2FAB2FBB278093C500D13029F47A
:10035000E0ECF0E0808182608083113029F4E1ECF0
:10036000F0E0808188608083013029F4E1ECF0E0E6
:1003700080818061808381E0E81206C0E2ECF0E0D9
:100380008081877F80830EC082E0E81206C0E2ECA5
:10039000F0E080818860808305C0E2ECF0E080813D
:1003A000877F8083E1ECF0E080818B7F8083E2ECCB
:1003B000F0E08081897F8083C53041F1C63021F42F
:1003C00080818260808322C0C73031F4E2ECF0E0AB
:1003D0008081846080831AC0C83031F4E2ECF0E0A0
:1003E00080818660808312C0C93059F4E1ECF0E06E
:1003F000808184608083E2ECF0E08081866080838D
:1004000005C0E2ECF0E0808186608083E1ECF0E002
:10041000808180688083DF91CF911F910F91EF9051
:10042000CF900895FC0107C09091C00095FFFCCFCC
:100430008093C600319680818111F6CF089584366D
:1004400040F199E2899F912D112492959F7020E3AC
:10045000290F20930001282F34E6939F201911249F
:100460008DEC289F812D112486958695869590E3A5
:10047000980F90930101880F982F990F990F890F6A
:10048000922F981B905D9093020183E08093490125
:1004900008958A30C8F09DEC899F912D112496957E
:1004A0009695969520E3290F20930101990F292F06
:1004B000220F220F920F282F291B205D209302016B
:1004C00082E0809349010895805D8093020181E07C
:1004D0008093490108959091C00095FFFCCF8093CF
:1004E000C6008091C00086FFFCCFE0ECF0E0808188
:1004F00080648083089580914901833069F48091FC
:1005000000010E946B02809101010E946B028091A8
:1005100002010E946B020895823049F4809101012A
:100520000E946B02809102010E946B02089581304B
:1005300029F4809102010E946B0208958EE391E0FC
:100540000E9412020895A1E21A2EAA1BBB1BFD01F4
:100550000DC0AA1FBB1FEE1FFF1FA217B307E407A2
:10056000F50720F0A21BB30BE40BF50B661F771FFA
:10057000881F991F1A9469F76095709580959095DA
:0E0580009B01AC01BD01CF010895F894FFCF9F
:10058E00FFFFFF5F5F5F5F5F5F5F5F5F5F5F5F5F8D
:10059E005F5F5F5F5F5F5F5F5F5F5F5F5F5F5F5F5D
:1005AE005F5F000D0A00414443202D3E2050433032
:1005BE003A00414443202D3E205043313A004552EB
:0605CE00524F5200300004
:00000001FF
