S00E00005350494D30322E737265637B
S11300000C9434000C9451000C9451000C94510045
S11300100C9451000C9451000C9451000C94510018
S11300200C9451000C9451000C9451000C94510008
S11300300C9451000C9451000C9451000C945100F8
S11300400C9451000C9451000C947B000C945100BE
S11300500C9451000C9451000C9451000C945100D8
S11300600C9451000C94510011241FBECFEFD8E022
S1130070DEBFCDBF11E0A0E0B1E0E4E5F6E002C0F0
S113008005900D92A434B107D9F721E0A4E4B1E0BE
S113009001C01D92AD34B207E1F70E94B7000C9481
S11300A028030C940000CF92EF920F93F894E1E6AA
S11300B0F0E080E8808384E080838FEF8AB984B99C
S11300C020E841E060E080E00E9401018BB11BB8B0
S11300D06894CC24C3F8EE24E39401E021E041E0E9
S11300E060E875E280E090E00E94830178940F91CB
S11300F0EF90CF9008951F920F920FB60F92112494
S11301008F939F939091C60080914501811108C0FF
S113011090934601809145018F5F8093450117C0FC
S113012080914501813041F49093470180914501CC
S11301308F5F809345010BC080914501823039F473
S113014090934801809145018F5F80934501809190
S11301504501833029F41092450181E080934401E4
S11301609F918F910F900FBE0F901F9018950E9432
S11301705300809144018130E1F786E491E00E94CC
S1130180DD0280934C011092440183E091E00E94CF
S11301904C0283E291E00E944C0280914C010E9447
S11301A059020E94B50283E291E00E944C028BB195
S11301B01BB885B18F7085B98BB190914C019C7F30
S11301C08370892B8BB985B190914C0193708C7F8E
S11301D0892B85B983E291E00E944C0286E291E08A
S11301E00E944C0283E291E00E944C0285B18B7F15
S11301F085B980914C010E947E0185B1846085B9E6
S1130200B8CF9CB59F7B9CBD81110DC084B1846027
S113021084B984B1886284B984B18F7E84B98CB581
S113022080618CBD0EC0813061F484B18B7F84B950
S113023084B1877D84B984B1806184B98CB58F7EA3
S11302408CBD411104C08CB580628CBD05C04130A9
S113025019F48CB58F7D8CBD611104C08CB5837F7E
S11302608CBD17C0613039F48CB5877F8CBD8CB5DB
S113027084608CBD0EC0623039F48CB588608CBD4E
S11302808CB58B7F8CBD05C0633019F48CB58C6044
S11302908CBD8CB58C7F8CBD8DB58E7F8DBD223091
S11302A021F48DB581608DBD25C0243019F128302D
S11302B039F48CB581608CBD8DB581608DBD1AC05B
S11302C0203121F48CB581608CBD14C0203239F406
S11302D08CB582608CBD8DB581608DBD0BC0203422
S11302E021F48CB582608CBD05C0203819F48CB51E
S11302F083608CBD8CB580648CBD08958EBD0DB4B7
S113030007FEFDCF0895CF92EF920F931F93CF93E3
S1130310DF93D42F122FCC2DE0ECF0E020812D7F41
S113032020831092C1001092C2004130E1F4DC013C
S1130330CB01880F991FAA1FBB1F880F991FAA1FE3
S1130340BB1F9C01AD01220F331F441F551F60E4E6
S113035072E48FE090E00E940603DA01C90101977C
S1130360A109B10925C0411120C0DC01CB01880FCE
S1130370991FAA1FBB1F880F991FAA1FBB1F9C018F
S1130380AD01220F331F441F551F220F331F441F7B
S1130390551F60E472E48FE090E00E940603DA01E6
S11303A0C9010197A109B10903C080E090E0DC0113
S11303B08093C400892F9A2FAB2FBB278093C5004D
S11303C0D13029F4E0ECF0E0808182608083113048
S11303D029F4E1ECF0E0808188608083013029F425
S11303E0E1ECF0E080818061808381E0E81206C066
S11303F0E2ECF0E08081877F80830EC082E0E81227
S113040006C0E2ECF0E080818860808305C0E2EC05
S1130410F0E08081877F8083E1ECF0E080818B7F56
S11304208083E2ECF0E08081897F8083C53041F1F4
S1130430C63021F480818260808322C0C73031F4C9
S1130440E2ECF0E08081846080831AC0C83031F42B
S1130450E2ECF0E080818660808312C0C93059F4F8
S1130460E1ECF0E0808184608083E2ECF0E0808164
S11304708660808305C0E2ECF0E080818660808342
S1130480E1ECF0E0808180688083DF91CF911F915F
S11304900F91EF90CF900895FC0107C09091C00098
S11304A095FFFCCF8093C600319680818111F6CFF1
S11304B00895843640F199E2899F912D11249295F3
S11304C09F7020E3290F20930001282F34E6939F87
S11304D0201911248DEC289F812D11248695869551
S11304E0869590E3980F90930101880F982F990FA8
S11304F0990F890F922F981B905D9093020183E0CE
S11305008093490108958A30C8F09DEC899F912D0C
S1130510112496959695969520E3290F2093010131
S1130520990F292F220F220F920F282F291B205DAC
S11305302093020182E0809349010895805D8093B5
S1130540020181E08093490108959091C00095FFD4
S1130550FCCF8093C6008091C00086FFFCCFE0EC06
S1130560F0E0808180648083089580914901833024
S113057069F4809100010E94A502809101010E940A
S1130580A502809102010E94A5020895823049F4D7
S1130590809101010E94A502809102010E94A5029E
S11305A00895813029F4809102010E94A5020895E2
S11305B08BE391E00E944C020895FC01208130E01D
S11305C02053310984E6829FA001839F500D11249A
S11305D09181292F30E020533109C901880F991FD7
S11305E0220F331F220F331F220F331F280F391FEF
S11305F0240F351F828190E0C097820F931F8F3F95
S1130600910519F010F08FEF90E00895A1E21A2EF1
S1130610AA1BBB1BFD010DC0AA1FBB1FEE1FFF1FA2
S1130620A217B307E407F50720F0A21BB30BE40BF2
S1130630F50B661F771F881F991F1A9469F7609539
S11306407095809590959B01AC01BD01CF010895F3
S1070650F894FFCF48
S1130654FFFFFF5F5F5F5F5F5F5F5F5F5F5F5F5FC2
S11306645F5F5F5F5F5F5F5F5F5F5F5F5F5F5F5F92
S11306745F5F000D0A005472616E736D697474696E
S11306846E6720646174612E2E2E004552524F52BF
S1070694003000002E
S9030000FC
