S00E00005350495F50522E7372656329
S11300000C9434000C9451000C9451000C94510045
S11300100C9451000C9451000C9451000C94510018
S11300200C9451000C9451000C9451000C94510008
S11300300C9451000C9451000C9451000C945100F8
S11300400C9451000C94D9010C9451000C9451005F
S11300500C9451000C949B010C9451000C9451008D
S11300600C9451000C94510011241FBECFEFD8E022
S1130070DEBFCDBF11E0A0E0B1E0E6E8F8E002C0E9
S113008005900D92A634B107D9F721E0A6E4B1E0BA
S113009001C01D92AA35B207E1F70E94F1010C9448
S11300A041040C940000AF92CF92EF920F933C2D39
S11300B09A2D611106C0ECE7F0E05081507F508327
S11300C04CC0613049F4ECE7F0E05081507F50833C
S11300D050815160508341C0623049F4ECE7F0E054
S11300E05081507F508350815260508336C06330BA
S11300F049F4ECE7F0E05081507F50835081536025
S113010050832BC0643049F4ECE7F0E05081507F19
S1130110508350815460508320C0653049F4ECE72B
S1130120F0E05081507F508350815560508315C05A
S1130130663049F4ECE7F0E05081507F5083508101
S1130140566050830AC0673041F4ECE7F0E0508118
S1130150507F5083508157605083ECE7F0E050812A
S11301605F77508350815F7B5083413021F440811D
S1130170406C40830FC0423031F4ECE7F0E0408142
S11301804064408307C0442329F0ECE7F0E0408159
S1130190406C4083ECE7F0E040814F7D40832130A8
S11301A019F4208120622083813029F4EAE7F0E009
S11301B0808180688083013031F4EAE7F0E0808157
S11301C08062808305C0EAE7F0E0808180648083F8
S11301D081E0E81205C0EAE7F0E08081886080836E
S11301E0EAE7F0E08081887F8083323021F48081E7
S11301F0816080832FC0343031F4EAE7F0E08081FD
S11302008260808327C0383031F4EAE7F0E08081EF
S1130210836080831FC0303131F4EAE7F0E08081ED
S11302208460808317C0303231F4EAE7F0E08081E3
S1130230856080830FC0303431F4EAE7F0E08081D8
S11302408660808307C0303829F4EAE7F0E08081D3
S113025087608083EBE7F0E08081887F8083992347
S1130260D9F1913021F480818160808335C092304E
S113027031F4EBE7F0E08081826080832DC093301D
S113028031F4EBE7F0E080818360808325C0943013
S113029031F4EBE7F0E08081846080831DC0953009
S11302A031F4EBE7F0E080818560808315C09630FF
S11302B031F4EBE7F0E08081866080830DC09730F5
S11302C031F4EBE7F0E080818760808305C0EBE7E1
S11302D0F0E08081887F80830F91EF90CF90AF9082
S11302E00895DC0190E00CC0292F30E0FD01E20FFD
S11302F0F31F4081F901EF5AFE4F477040839F5F1F
S1130300961790F3609347010895F894E1E6F0E0BE
S113031080E8808384E080838FEF8AB917B820E86F
S113032041E060E081E00E9445021EBC8CB580681B
S11303308CBD789408951F920F920FB60F921124DA
S11303408F939F93AF93BF93EF93FF938091460155
S1130350E82FF0E0EF5AFE4FE081F0E09091790051
S1130360E75BFE4F90838F5F809346019091470136
S1130370891302C010924601ACE7B0E09C91E09171
S11303804601F0E0EF5AFE4F8081907F8F70892BF9
S11303908C93EAE7F0E0808180648083FF91EF91A1
S11303A0BF91AF919F918F910F900FBE0F901F90AF
S11303B018951F920F920FB60F9211248F938EB53A
S11303C0833521F4809149018EBD05C0843419F42C
S11303D080914A018EBD8F910F900FBE0F901F9098
S11303E01895CF93DF9300D0CDB7DEB70E94850177
S11303F0A12C6894CC24C3F8EE24E39400E021E01B
S113040042E060E081E00E945300198281E08A8327
S113041062E0CE0101960E94710101E021E041E019
S113042060E875E280E090E00E94C50283E091E01C
S11304300E948E0383E291E00E948E0386E291E0A3
S11304400E948E0309E411E0F80180810E949B035D
S11304500E94F70383E291E00E948E0383E291E01D
S11304600E948E0382E391E00E948E03F801818151
S11304700E949B030E94F70383E291E00E948E0393
S113048083E091E00E948E03D1CF9CB59F7B9CBDFD
S113049081110DC084B1846084B984B1886284B947
S11304A084B18F7E84B98CB580618CBD11C08130DC
S11304B079F484B18B7F84B985B1846085B984B1C2
S11304C0877D84B984B1806184B98CB58F7E8CBDFD
S11304D0411104C08CB580628CBD05C0413019F453
S11304E08CB58F7D8CBD611104C08CB5837F8CBDB0
S11304F017C0613039F48CB5877F8CBD8CB58460AE
S11305008CBD0EC0623039F48CB588608CBD8CB55E
S11305108B7F8CBD05C0633019F48CB58C608CBDA9
S11305208CB58C7F8CBD8DB58E7F8DBD223021F432
S11305308DB581608DBD25C0243019F1283039F482
S11305408CB581608CBD8DB581608DBD1AC02031A4
S113055021F48CB581608CBD14C0203239F48CB583
S113056082608CBD8DB581608DBD0BC0203421F4BB
S11305708CB582608CBD05C0203819F48CB58360BD
S11305808CBD8CB580648CBD0895CF92EF920F938F
S11305901F93CF93DF93D42F122FCC2DE0ECF0E0F8
S11305A020812D7F20831092C1001092C20041301F
S11305B0E1F4DC01CB01880F991FAA1FBB1F880F30
S11305C0991FAA1FBB1F9C01AD01220F331F441F9B
S11305D0551F60E472E48FE090E00E941F04DA018A
S11305E0C9010197A109B10925C0411120C0DC014D
S11305F0CB01880F991FAA1FBB1F880F991FAA1F21
S1130600BB1F9C01AD01220F331F441F551F220F36
S1130610331F441F551F60E472E48FE090E00E9492
S11306201F04DA01C9010197A109B10903C080E0DF
S113063090E0DC018093C400892F9A2FAB2FBB2755
S11306408093C500D13029F4E0ECF0E08081826031
S11306508083113029F4E1ECF0E0808188608083AC
S1130660013029F4E1ECF0E080818061808381E055
S1130670E81206C0E2ECF0E08081877F80830EC040
S113068082E0E81206C0E2ECF0E0808188608083BA
S113069005C0E2ECF0E08081877F8083E1ECF0E04C
S11306A080818B7F8083E2ECF0E08081897F80838E
S11306B0C53041F1C63021F480818260808322C03C
S11306C0C73031F4E2ECF0E08081846080831AC0AA
S11306D0C83031F4E2ECF0E080818660808312C09F
S11306E0C93059F4E1ECF0E0808184608083E2EC6D
S11306F0F0E080818660808305C0E2ECF0E08081D8
S113070086608083E1ECF0E0808180688083DF9103
S1130710CF911F910F91EF90CF900895FC0107C0E6
S11307209091C00095FFFCCF8093C60031968081E4
S11307308111F6CF0895843640F199E2899F912D75
S1130740112492959F7020E3290F20930001282FF4
S113075034E6939F201911248DEC289F812D1124B8
S113076086958695869590E3980F90930101880F5E
S1130770982F990F990F890F922F981B905D909342
S1130780020183E08093480108958A30C8F09DEC0B
S1130790899F912D112496959695969520E3290F7E
S11307A020930101990F292F220F220F920F282F36
S11307B0291B205D2093020182E080934801089563
S11307C0805D8093020181E08093480108959091B7
S11307D0C00095FFFCCF8093C6008091C00086FFC7
S11307E0FCCFE0ECF0E08081806480830895809108
S11307F04801833069F4809100010E94E7038091ED
S113080001010E94E703809102010E94E703089519
S1130810823049F4809101010E94E7038091020132
S11308200E94E7030895813029F4809102010E9417
S1130830E70308958EE391E00E948E030895A1E2F8
S11308401A2EAA1BBB1BFD010DC0AA1FBB1FEE1F46
S1130850FF1FA217B307E407F50720F0A21BB30B91
S1130860E40BF50B661F771F881F991F1A9469F70D
S113087060957095809590959B01AC01BD01CF0169
S10908800895F894FFCF77
S1130886FFFFFF5F5F5F5F5F5F5F5F5F5F5F5F5F8E
S11308965F5F5F5F5F5F5F5F5F5F5F5F5F5F5F5F5E
S11308A65F5F000D0A00414443202D3E2050433033
S11308B63A00414443202D3E205043313A004552EC
S10908C6524F5200300005
S9030000FC
